:100000000C9463000C948B000C948B000C9457049C
:100010000C9457040C9457040C948B000C948B0094
:100020000C948B000C948B000C948B000C948B0024
:100030000C948B000C948B000C948B000C948B0014
:100040000C940D040C948B000C94DB030C94B503FE
:100050000C948B000C948B000C948B000C948B00F4
:100060000C948B000C948B0000000008000201002F
:100070000003040700000000000000000000000072
:10008000250028002B0000000000240027002A0083
:1000900000000000230026002900040404040404D6
:1000A0000404020202020202030303030303010227
:1000B00004081020408001020408102001020408F6
:1000C0001020D1042B0711241FBECFEFD8E0DEBFD4
:1000D000CDBF22E0A4E5B1E001C01D92AE36B2076B
:1000E000E1F711E0A0E0B1E0EEEAF3E102C0059033
:1000F0000D92A435B107D9F710E0C2E6D0E004C0F4
:100100002197FE010E94B807C136D107C9F70E94A6
:10011000C7050C94CA090C940000CF92DF92EF92AD
:10012000FF920F931F93CF93DF936C017A018B01A2
:10013000C0E0D0E0CE15DF0589F0D8016D918D01CA
:10014000D601ED91FC910190F081E02DC601099559
:10015000892B11F47E0102C02196ECCFC701DF91FB
:10016000CF911F910F91FF90EF90DF90CF90089566
:10017000FC01538D448D252F30E0842F90E0821BAD
:10018000930B541710F0CF96089501970895FC0132
:10019000918D828D981761F0828DDF01A80FB11DBE
:1001A0005D968C91928D9F5F9F73928F90E00895E2
:1001B0008FEF9FEF0895FC01918D828D981731F09C
:1001C000828DE80FF11D858D90E008958FEF9FEFF0
:1001D0000895FC01918D228D892F90E0805C9F4FC6
:1001E000821B91098F739927089581EA91E00E94FB
:1001F000E90021E0892B09F420E0822F0895FC0119
:10020000848DDF01A80FB11DA35ABF4F2C91848D9F
:1002100090E001968F739927848FA689B7892C93D4
:10022000A089B1898C9180648C93938D848D98136F
:1002300006C00288F389E02D80818F7D8083089538
:10024000EF92FF920F931F93CF93DF93EC0181E026
:10025000888F9B8D8C8D981305C0E889F9898081E2
:1002600085FD24C0F62E0B8D10E00F5F1F4F0F731E
:100270001127E02E8C8DE8120CC00FB607FCFACFC8
:10028000E889F989808185FFF5CFCE010E94FF00C2
:10029000F1CF8B8DFE01E80FF11DE35AFF4FF08285
:1002A0000B8FEA89FB898081806207C0EE89FF8914
:1002B0006083E889F98980818064808381E090E0AF
:1002C000DF91CF911F910F91FF90EF900895CF9301
:1002D000DF93EC01888D8823C9F0EA89FB8980814E
:1002E00085FD05C0A889B9898C9186FD0FC00FB620
:1002F00007FCF5CF808185FFF2CFA889B9898C9161
:1003000085FFEDCFCE010E94FF00E7CFDF91CF91B7
:10031000089580E090E0892B29F00E94F50081117A
:100320000C940000089590E0FC01E859FF4F3491CF
:10033000FC01E255FF4F2491FC01E656FF4FE4918A
:10034000EE2309F43BC0332339F1333091F038F414
:100350003130A9F0323001F584B58F7D12C03730CD
:1003600091F03830A1F03430B9F4809180008F7D65
:1003700003C0809180008F77809380000DC084B58A
:100380008F7784BD09C08091B0008F7703C08091C2
:10039000B0008F7D8093B000F0E0EE0FFF1FE458B7
:1003A000FF4FA591B4918FB7F894EC91611103C000
:1003B00020952E2301C02E2B2C938FBF08953FB77D
:1003C000F8948091990190919A01A0919B01B0912C
:1003D0009C0126B5A89B05C02F3F19F00196A11DD1
:1003E000B11D3FBFBA2FA92F982F8827820F911DCB
:1003F000A11DB11DBC01CD0142E0660F771F881F12
:10040000991F4A95D1F7089520919F013091A0013D
:100410002817390771F490919D0180919E019817DA
:1004200041F0E0919D01F0E0EC5AFE4F808190E0B8
:1004300008958FEF9FEF089508951F93CF93DF9353
:10044000DC015C962D913C915D972115310539F4C5
:1004500081E090E013969C938E9312973DC0519645
:10046000ED91FC91529750969C915097892F8095D1
:100470001FB75E964C915E9741FB772770F941FD5F
:100480006095F8944081772311F0492B01C04823EF
:100490004083E9012197F1F748E0508160FF02C0F5
:1004A000592B01C058235083E9012197F1F7669534
:1004B000415099F7772321F090818923808303C0ED
:1004C0008081982B90831FBF5C968D919C915D9746
:1004D0000197F1F721E030E0C901DF91CF911F9141
:1004E000089520919F013091A0012817390771F4D8
:1004F00080919E0120919D0190E0805C9F4F821B26
:10050000910960E470E00E949007089580E090E017
:10051000089520919F013091A00128173907B9F45F
:1005200090919D0180919E01981789F0E0919D0125
:10053000F0E0EC5AFE4F808120919D0130E02F5F6A
:100540003F4F2F73332720939D0190E008958FEF45
:100550009FEF0895089580E090E00895CF93DF9392
:10056000EC0188819981009711F00E94530819824B
:1005700018821D821C821B821A82DF91CF910895FE
:100580000E94B5090F931F93CF93DF93EC018881ED
:100590009981009729F02A813B812617370788F433
:1005A0008B016F5F7F4F0E94EB08009761F099838A
:1005B00088831B830A832C813D81232B11F4FC014A
:1005C000108281E001C080E0DF91CF911F910F91F7
:1005D0000895EF92FF920F931F93CF93DF93EC0157
:1005E000198218821B821A821D821C826115710574
:1005F00021F18B01FB0101900020E9F731977F0188
:10060000E61AF70AB7010E94C202811109C0CE01A1
:10061000DF91CF911F910F91FF90EF900C94AE025C
:10062000FD82EC82B80188819981DF91CF911F9181
:100630000F91FF90EF900C94C309DF91CF911F9120
:100640000F91FF90EF900895EF92FF920F931F93F9
:10065000CF93DF9300D000D000D0CDB7DEB78C01B0
:10066000FC01848195810097D1F180FD38C06EE353
:1006700071E0CE0101960E94E902F80124813581E2
:10068000E080F1800D811E81E114F10409F44AC07B
:1006900021153105F1F50D811E810F5F1F4FB80146
:1006A000CE0101960E94C202882309F44CC0298120
:1006B0003A818D819E816CE371E0820F931F0E94CD
:1006C000C3091E830D834D815E8169817A818EE32A
:1006D00092E00E948D0089819A810E94530860E017
:1006E00070E08DE592E00E94C202811105C08DE5A7
:1006F00092E00E94AE022CC010926202109261023F
:100700006DE371E080915D0290915E020E94C309E9
:100710001FC0020F131FB801CE0101960E94C20232
:10072000811105C0CE0101960E94AE02B4CF29818D
:100730003A818D819E81B701820F931F0E94C30968
:100740001E830D83A8CFCE0101960E94AE02BBCFBF
:1007500026960FB6F894DEBF0FBECDBFDF91CF91C6
:100760001F910F91FF90EF9008951F920F920FB677
:100770000F9211242F933F934F935F936F937F9327
:100780008F939F93AF93BF93EF93FF9381EA91E091
:100790000E94FF00FF91EF91BF91AF919F918F91C8
:1007A0007F916F915F914F913F912F910F900FBE6D
:1007B0000F901F9018951F920F920FB60F92112451
:1007C0002F938F939F93EF93FF93E091B101F0915B
:1007D000B2018081E091B701F091B80182FD12C0B1
:1007E00090818091BA018F5F8F732091BB01821736
:1007F00051F0E091BA01F0E0EF55FE4F958F8093F4
:10080000BA0101C08081FF91EF919F918F912F914B
:100810000F900FBE0F901F9018951F920F920FB65A
:100820000F9211242F933F938F939F93AF93BF9376
:100830008091950190919601A0919701B0919801B6
:100840003091940123E0230F2D3720F40196A11D50
:10085000B11D05C026E8230F0296A11DB11D2093EE
:1008600094018093950190939601A0939701B09382
:1008700098018091990190919A01A0919B01B0916A
:100880009C010196A11DB11D8093990190939A013D
:10089000A0939B01B0939C01BF91AF919F918F91C9
:1008A0003F912F910F900FBE0F901F9018951F92A0
:1008B0000F920FB60F9211242F933F934F935F9394
:1008C0006F937F938F939F93AF93BF93EF93FF9318
:1008D000E0919F01F091A001309709F451C0968DED
:1008E000A685B785858591FF04C09C91892329F44D
:1008F00047C09C91892309F043C0A389B4899C9186
:100900008589809589238C93868997890197F1F74A
:10091000608D718DA685B785558538E020E0CB01C7
:100920000197F1F7822F90E095958795282F4C91AC
:10093000452309F02068315091F7868D81FD20957F
:1009400080919E0190E001968F73992730919D01CF
:10095000381749F0A0919E01B0E0AC5ABE4F2C93DD
:1009600080939E0103C0868D8160868F828D938DDA
:100970000197F1F7A389B4899C918589892B8C9380
:10098000FF91EF91BF91AF919F918F917F916F9167
:100990005F914F913F912F910F900FBE0F901F903D
:1009A0001895CF93DF931092A4011092A30188EEC3
:1009B00093E0A0E0B0E08093A5019093A601A093FE
:1009C000A701B093A8012AE031E03093A20120935F
:1009D000A10125EC30E03093AE012093AD0124EC71
:1009E00030E03093B0012093AF0120EC30E0309341
:1009F000B2012093B10121EC30E03093B401209397
:100A0000B30122EC30E03093B6012093B50126EC1F
:100A100030E03093B8012093B7011092BA011092E0
:100A2000BB011092BC011092BD01109241021092C4
:100A300040028093420290934302A0934402B093F9
:100A400045028CE191E090933F0280933E02109228
:100A500055021092540210925702109256021092B0
:100A600059021092580210925B0210925A02609141
:100A70005C026E7F6D7F60935C026695617081E0C1
:100A800068278BE00E949301E9EBF0E02491E5EA0E
:100A9000F0E08491882399F090E0880F991FFC0181
:100AA000EA57FF4FA591B491FC01E458FF4F85919F
:100AB00094918FB7F894EC91E22BEC938FBFE9EB14
:100AC000F0E0E491E0934E02E5EAF0E0E491F0E03A
:100AD000EE0FFF1FE458FF4F8591949190935002C1
:100AE00080934F02E8EBF0E02491E4EAF0E0849197
:100AF0008823C1F090E0880F991FFC01EA57FF4F4F
:100B0000C591D491FC01E458FF4FA591B4919FB7D2
:100B1000F8948881E22FE0958E2388838C91E823D6
:100B2000EC939FBF80915C0281FD04C061E08AE08C
:100B30000E9493018AE080934A02E8EBF0E0E4919E
:100B4000E0934B02E4EAF0E0E491F0E0EE0FFF1FE7
:100B5000E057FF4F8591949190934D0280934C0202
:100B60008EE291E090933F0280933E026DE371E04C
:100B70008DE592E00E94E9026DE371E083E692E088
:100B80000E94E90210926902DF91CF910895CF93FC
:100B9000DF9300D000D000D0CDB7DEB7789484B515
:100BA000826084BD84B5816084BD85B5826085BD69
:100BB00085B5816085BD80916E00816080936E00F7
:100BC00010928100809181008260809381008091E9
:100BD000810081608093810080918000816080939A
:100BE00080008091B10084608093B1008091B0005A
:100BF00081608093B00080917A00846080937A0055
:100C000080917A00826080937A0080917A0081607E
:100C100080937A0080917A00806880937A001092A5
:100C2000C100E091B101F091B20182E08083E091D6
:100C3000AD01F091AE011082E091AF01F091B001F1
:100C400080E180831092B901E091B501F091B60185
:100C500086E08083E091B301F091B40180818061EE
:100C60008083E091B301F091B4018081886080833A
:100C7000E091B301F091B401808180688083E091BC
:100C8000B301F091B40180818F7D8083109259026D
:100C9000109258021092570210925602109255026A
:100CA0001092540285E690E090935B0280935A0282
:100CB00090914A02963108F057C021E230E030931B
:100CC00055022093540223E630E0309357022093DC
:100CD000560222E430E030935902209358022091CA
:100CE0006800983050F031E09E3008F430E081E048
:100CF00001C0880F3A95EAF701C084E0822B809307
:100D00006800983038F09E3040F0963148F020E08E
:100D100030E008C02DE630E005C02BE630E002C030
:100D20002CE630E03093520220935102983030F498
:100D300081E001C0880F9A95EAF70EC0292F30E0B4
:100D40009E3018F42850310902C02E50310981E03C
:100D500001C0880F2A95EAF78093530280915A02C6
:100D600090915B020197F1F780915802909159029E
:100D7000892B49F1E0919F01F091A00122E0EE332F
:100D8000F20709F1309739F0A389B4899C918589DC
:100D9000809589238C9380915C028E7F80935C0286
:100DA00010929E0110929D018EE392E09093A0011B
:100DB00080939F01E0915102F091520290818091C5
:100DC0005302892B80838EE392E00E94710281EAB4
:100DD00091E00E94E900892BD9F181EA91E00E941B
:100DE000C7000197A9F569E471E0CE0101960E9460
:100DF000E902CE0101960E94240389819A810E9412
:100E000053080E94DF014B015C0188E8C82E83E192
:100E1000D82EE12CF12C0E94DF01DC01CB018819D6
:100E20009909AA09BB09883E9340A105B10558F06C
:100E300081E0C81AD108E108F10828EE820E23E00B
:100E4000921EA11CB11CC114D104E104F10419F7D4
:100E50000E948901B8CF8EE291E090933F02809387
:100E60003E0280916302909164020E945308809137
:100E70005D0290915E020E9453088CE191E0909394
:100E80003F0280933E0280919F019091A0018E537A
:100E9000924071F4E0915102F09152029081809160
:100EA00053028095892380831092A00110929F01A4
:100EB00008952F923F924F925F926F927F928F92FE
:100EC0009F92AF92BF92CF92DF92EF92FF920F93D9
:100ED0001F93CF93DF93CDB7DEB7CA1BDB0B0FB6E3
:100EE000F894DEBF0FBECDBF09942A8839884888A0
:100EF0005F846E847D848C849B84AA84B984C88436
:100F0000DF80EE80FD800C811B81AA81B981CE0F2C
:100F1000D11D0FB6F894DEBF0FBECDBFED01089511
:100F200097FB072E16F4009407D077FD09D00E9496
:100F3000A40707FC05D03EF4909581959F4F089536
:100F4000709561957F4F0895AA1BBB1B51E107C0A7
:100F5000AA1FBB1FA617B70710F0A61BB70B881F49
:100F6000991F5A95A9F780959095BC01CD010895D8
:100F7000EE0FFF1F0590F491E02D0994CF93DF93BE
:100F80008230910510F482E090E0E0916C02F091E3
:100F90006D0220E030E0C0E0D0E0309711F14081F8
:100FA000518148175907C0F04817590761F48281E9
:100FB0009381209719F09B838A832BC090936D02B5
:100FC00080936C0226C02115310519F04217530792
:100FD00018F49A01BE01DF01EF010280F381E02DD8
:100FE000DCCF2115310509F1281B390B24303105DF
:100FF00090F412968D919C9113976115710521F0D3
:10100000FB019383828304C090936D0280936C02F2
:10101000FD01329644C0FD01E20FF31F81939193CD
:10102000225031092D933C933AC020916A023091AD
:101030006B02232B41F42091020130910301309384
:101040006B0220936A022091000130910101211569
:10105000310541F42DB73EB740910401509105018F
:10106000241B350BE0916A02F0916B02E217F30743
:10107000A0F42E1B3F0B2817390778F0AC014E5F08
:101080005F4F2417350748F04E0F5F1F50936B02D8
:1010900040936A028193919302C0E0E0F0E0CF01B7
:1010A000DF91CF9108950F931F93CF93DF93009714
:1010B00009F48CC0FC0132971382128200916C02F9
:1010C00010916D020115110581F420813181820F8B
:1010D000931F20916A0230916B022817390779F526
:1010E000F0936B02E0936A0271C0D80140E050E0D7
:1010F000AE17BF0750F412962D913C911397AD0196
:101100002115310509F1D901F3CF9D01DA013383AE
:10111000228360817181860F971F8217930769F47C
:10112000EC0128813981260F371F2E5F3F4F318315
:1011300020838A819B8193838283452B29F4F093BA
:101140006D02E0936C0242C01396FC93EE931297EB
:10115000ED01499159919E01240F351FE217F307C4
:1011600071F480819181840F951F029611969C9352
:101170008E938281938113969C938E931297E0E0D5
:10118000F0E0D80112968D919C911397009719F079
:10119000F8018C01F6CF8D919C9198012E5F3F4F05
:1011A000820F931F20916A0230916B022817390732
:1011B00069F4309729F410926D0210926C0202C00B
:1011C0001382128210936B0200936A02DF91CF9117
:1011D0001F910F910895A0E0B0E0E1EFF8E00C94CA
:1011E0005D07EC01009721F4CB010E94BE07B8C057
:1011F000FC01E60FF71F9C0122503109E217F307AB
:1012000008F4ACC0D9010D911C911197061717076E
:10121000B0F00530110508F49FC0C8010497861787
:10122000970708F499C002501109061B170B019388
:1012300011936D937C93CF010E9453088DC05B0185
:10124000A01AB10A4C01800E911EA0916C02B091BF
:101250006D0240E050E0E12CF12C109709F44AC0F7
:10126000A815B905D1F56D907C901197630182E0C6
:10127000C80ED11CCA14DB0480F1A3014A195B0912
:101280006A0182E0C80ED11C1296BC901297139688
:10129000AC91B5E0CB16D10440F0B282A383518368
:1012A0004083D9016D937C930AC00E5F1F4FC30129
:1012B000800F911FF90191838083EB2DFA2FE114A8
:1012C000F10431F0D7011396FC93EE93129744C0CA
:1012D000F0936D02E0936C023FC08D919C91119749
:1012E0004817590708F4AC017D0112960D90BC9186
:1012F000A02DB3CF80916A0290916B028815990559
:10130000E1F446175707C8F480910001909101015C
:10131000009741F48DB79EB74091040150910501AB
:10132000841B950BE817F907C8F4F0936B02E09360
:101330006A02F901718360830FC0CB010E94BE076E
:101340007C01009759F0A801BE010E94BA09CE01A4
:101350000E945308C70104C0CE0102C080E090E0A3
:10136000CDB7DEB7EEE00C94790781E090E0F89419
:101370000C94CA09FB01DC0102C001900D9241509E
:101380005040D8F70895FB01DC0101900D92002038
:10139000E1F7089510E0C2E6D0E004C0FE010E942B
:0E13A000B8072196C336D107C9F7F894FFCFDE
:1013AE0000006E0280000000000020018D00B800D9
:1013BE006701E900C700DB00000000001D028D0080
:1013CE00AB021C02710289020402000000001D0221
:1013DE008D00AB021C027102890204020D00415401
:1013EE002B53454E442030320030313032303330C2
:0413FE003430350052
:00000001FF
